{
	"data": {
		"bytecode": {
			"linkReferences": {},
			"object": "608060405234801561000f575f80fd5b5060405161181038038061181083398181016040528101906100319190610155565b815f806101000a81548173ffffffffffffffffffffffffffffffffffffffff021916908373ffffffffffffffffffffffffffffffffffffffff1602179055508060015f6101000a81548173ffffffffffffffffffffffffffffffffffffffff021916908373ffffffffffffffffffffffffffffffffffffffff1602179055503360025f6101000a81548173ffffffffffffffffffffffffffffffffffffffff021916908373ffffffffffffffffffffffffffffffffffffffff1602179055505050610193565b5f80fd5b5f73ffffffffffffffffffffffffffffffffffffffff82169050919050565b5f610124826100fb565b9050919050565b6101348161011a565b811461013e575f80fd5b50565b5f8151905061014f8161012b565b92915050565b5f806040838503121561016b5761016a6100f7565b5b5f61017885828601610141565b925050602061018985828601610141565b9150509250929050565b611670806101a05f395ff3fe60806040526004361061007a575f3560e01c80638da5cb5b1161004d5780638da5cb5b1461012a5780639cd441da146101545780639d7de6b314610170578063e4f1f70a1461018c5761007a565b80630fc63d101461007e57806341976e09146100a85780635f64b55b146100e45780638014a7aa1461010e575b5f80fd5b348015610089575f80fd5b506100926101a8565b60405161009f919061113d565b60405180910390f35b3480156100b3575f80fd5b506100ce60048036038101906100c99190611195565b6101cb565b6040516100db91906111d8565b60405180910390f35b3480156100ef575f80fd5b506100f8610625565b604051610105919061113d565b60405180910390f35b6101286004803603810190610123919061121b565b61064a565b005b348015610135575f80fd5b5061013e61092c565b60405161014b9190611255565b60405180910390f35b61016e6004803603810190610169919061126e565b610951565b005b61018a6004803603810190610185919061126e565b610b9b565b005b6101a660048036038101906101a1919061121b565b610de1565b005b5f8054906101000a900473ffffffffffffffffffffffffffffffffffffffff1681565b5f805f9054906101000a900473ffffffffffffffffffffffffffffffffffffffff1673ffffffffffffffffffffffffffffffffffffffff168273ffffffffffffffffffffffffffffffffffffffff161480610272575060015f9054906101000a900473ffffffffffffffffffffffffffffffffffffffff1673ffffffffffffffffffffffffffffffffffffffff168273ffffffffffffffffffffffffffffffffffffffff16145b6102b1576040517f08c379a00000000000000000000000000000000000000000000000000000000081526004016102a890611306565b60405180910390fd5b5f8054906101000a900473ffffffffffffffffffffffffffffffffffffffff1673ffffffffffffffffffffffffffffffffffffffff168273ffffffffffffffffffffffffffffffffffffffff1603610467576064805f8054906101000a900473ffffffffffffffffffffffffffffffffffffffff1673ffffffffffffffffffffffffffffffffffffffff166370a08231306040518263ffffffff1660e01b815260040161035e9190611255565b602060405180830381865afa158015610379573d5f803e3d5ffd5b505050506040513d601f19601f8201168201806040525081019061039d9190611338565b606460015f9054906101000a900473ffffffffffffffffffffffffffffffffffffffff1673ffffffffffffffffffffffffffffffffffffffff166370a08231306040518263ffffffff1660e01b81526004016103f99190611255565b602060405180830381865afa158015610414573d5f803e3d5ffd5b505050506040513d601f19601f820116820180604052508101906104389190611338565b6104429190611390565b61044c91906113fe565b6104569190611390565b61046091906113fe565b9050610620565b60015f9054906101000a900473ffffffffffffffffffffffffffffffffffffffff1673ffffffffffffffffffffffffffffffffffffffff168273ffffffffffffffffffffffffffffffffffffffff160361061f5760648060015f9054906101000a900473ffffffffffffffffffffffffffffffffffffffff1673ffffffffffffffffffffffffffffffffffffffff166370a08231306040518263ffffffff1660e01b81526004016105189190611255565b602060405180830381865afa158015610533573d5f803e3d5ffd5b505050506040513d601f19601f820116820180604052508101906105579190611338565b60645f8054906101000a900473ffffffffffffffffffffffffffffffffffffffff1673ffffffffffffffffffffffffffffffffffffffff166370a08231306040518263ffffffff1660e01b81526004016105b19190611255565b602060405180830381865afa1580156105cc573d5f803e3d5ffd5b505050506040513d601f19601f820116820180604052508101906105f09190611338565b6105fa9190611390565b61060491906113fe565b61060e9190611390565b61061891906113fe565b9050610620565b5b919050565b60015f9054906101000a900473ffffffffffffffffffffffffffffffffffffffff1681565b5f805f9054906101000a900473ffffffffffffffffffffffffffffffffffffffff1673ffffffffffffffffffffffffffffffffffffffff166370a08231306040518263ffffffff1660e01b81526004016106a49190611255565b602060405180830381865afa1580156106bf573d5f803e3d5ffd5b505050506040513d601f19601f820116820180604052508101906106e39190611338565b90505f60015f9054906101000a900473ffffffffffffffffffffffffffffffffffffffff1673ffffffffffffffffffffffffffffffffffffffff166370a08231306040518263ffffffff1660e01b81526004016107409190611255565b602060405180830381865afa15801561075b573d5f803e3d5ffd5b505050506040513d601f19601f8201168201806040525081019061077f9190611338565b90505f82848361078f919061142e565b838561079b9190611390565b6107a591906113fe565b6107af919061142e565b905060015f9054906101000a900473ffffffffffffffffffffffffffffffffffffffff1673ffffffffffffffffffffffffffffffffffffffff166323b872dd3330876040518463ffffffff1660e01b815260040161080f93929190611461565b6020604051808303815f875af115801561082b573d5f803e3d5ffd5b505050506040513d601f19601f8201168201806040525081019061084f91906114cb565b505f8054906101000a900473ffffffffffffffffffffffffffffffffffffffff1673ffffffffffffffffffffffffffffffffffffffff1663a9059cbb33836040518363ffffffff1660e01b81526004016108aa9291906114f6565b6020604051808303815f875af11580156108c6573d5f803e3d5ffd5b505050506040513d601f19601f820116820180604052508101906108ea91906114cb565b507f18704ae982dcd24a1beeeed3ecf045ab0520d7b7519b97adf3e4f40bf7efe33933828660405161091e9392919061151d565b60405180910390a150505050565b60025f9054906101000a900473ffffffffffffffffffffffffffffffffffffffff1681565b60025f9054906101000a900473ffffffffffffffffffffffffffffffffffffffff1673ffffffffffffffffffffffffffffffffffffffff163373ffffffffffffffffffffffffffffffffffffffff16146109e0576040517f08c379a00000000000000000000000000000000000000000000000000000000081526004016109d7906115c2565b60405180910390fd5b5f8054906101000a900473ffffffffffffffffffffffffffffffffffffffff1673ffffffffffffffffffffffffffffffffffffffff166323b872dd60025f9054906101000a900473ffffffffffffffffffffffffffffffffffffffff1630856040518463ffffffff1660e01b8152600401610a5d93929190611461565b6020604051808303815f875af1158015610a79573d5f803e3d5ffd5b505050506040513d601f19601f82011682018060405250810190610a9d91906114cb565b5060015f9054906101000a900473ffffffffffffffffffffffffffffffffffffffff1673ffffffffffffffffffffffffffffffffffffffff166323b872dd60025f9054906101000a900473ffffffffffffffffffffffffffffffffffffffff1630846040518463ffffffff1660e01b8152600401610b1d93929190611461565b6020604051808303815f875af1158015610b39573d5f803e3d5ffd5b505050506040513d601f19601f82011682018060405250810190610b5d91906114cb565b507f38f8a0c92f4c5b0b6877f878cb4c0c8d348a47b76d716c8e78f425043df9515b8282604051610b8f9291906115e0565b60405180910390a15050565b60025f9054906101000a900473ffffffffffffffffffffffffffffffffffffffff1673ffffffffffffffffffffffffffffffffffffffff163373ffffffffffffffffffffffffffffffffffffffff1614610c2a576040517f08c379a0000000000000000000000000000000000000000000000000000000008152600401610c21906115c2565b60405180910390fd5b5f8054906101000a900473ffffffffffffffffffffffffffffffffffffffff1673ffffffffffffffffffffffffffffffffffffffff1663a9059cbb60025f9054906101000a900473ffffffffffffffffffffffffffffffffffffffff16846040518363ffffffff1660e01b8152600401610ca59291906114f6565b6020604051808303815f875af1158015610cc1573d5f803e3d5ffd5b505050506040513d601f19601f82011682018060405250810190610ce591906114cb565b5060015f9054906101000a900473ffffffffffffffffffffffffffffffffffffffff1673ffffffffffffffffffffffffffffffffffffffff1663a9059cbb60025f9054906101000a900473ffffffffffffffffffffffffffffffffffffffff16836040518363ffffffff1660e01b8152600401610d639291906114f6565b6020604051808303815f875af1158015610d7f573d5f803e3d5ffd5b505050506040513d601f19601f82011682018060405250810190610da391906114cb565b507f6f0f96292ae0038c04f9b6bab30f185d9ca02c471d0983f563f2a4f674aef1378282604051610dd59291906115e0565b60405180910390a15050565b5f805f9054906101000a900473ffffffffffffffffffffffffffffffffffffffff1673ffffffffffffffffffffffffffffffffffffffff166370a08231306040518263ffffffff1660e01b8152600401610e3b9190611255565b602060405180830381865afa158015610e56573d5f803e3d5ffd5b505050506040513d601f19601f82011682018060405250810190610e7a9190611338565b90505f60015f9054906101000a900473ffffffffffffffffffffffffffffffffffffffff1673ffffffffffffffffffffffffffffffffffffffff166370a08231306040518263ffffffff1660e01b8152600401610ed79190611255565b602060405180830381865afa158015610ef2573d5f803e3d5ffd5b505050506040513d601f19601f82011682018060405250810190610f169190611338565b90505f8383610f259190611607565b8284610f319190611390565b610f3b91906113fe565b82610f46919061142e565b90505f8054906101000a900473ffffffffffffffffffffffffffffffffffffffff1673ffffffffffffffffffffffffffffffffffffffff166323b872dd3330876040518463ffffffff1660e01b8152600401610fa493929190611461565b6020604051808303815f875af1158015610fc0573d5f803e3d5ffd5b505050506040513d601f19601f82011682018060405250810190610fe491906114cb565b5060015f9054906101000a900473ffffffffffffffffffffffffffffffffffffffff1673ffffffffffffffffffffffffffffffffffffffff1663a9059cbb33836040518363ffffffff1660e01b81526004016110419291906114f6565b6020604051808303815f875af115801561105d573d5f803e3d5ffd5b505050506040513d601f19601f8201168201806040525081019061108191906114cb565b507f18704ae982dcd24a1beeeed3ecf045ab0520d7b7519b97adf3e4f40bf7efe3393385836040516110b59392919061151d565b60405180910390a150505050565b5f73ffffffffffffffffffffffffffffffffffffffff82169050919050565b5f819050919050565b5f6111056111006110fb846110c3565b6110e2565b6110c3565b9050919050565b5f611116826110eb565b9050919050565b5f6111278261110c565b9050919050565b6111378161111d565b82525050565b5f6020820190506111505f83018461112e565b92915050565b5f80fd5b5f611164826110c3565b9050919050565b6111748161115a565b811461117e575f80fd5b50565b5f8135905061118f8161116b565b92915050565b5f602082840312156111aa576111a9611156565b5b5f6111b784828501611181565b91505092915050565b5f819050919050565b6111d2816111c0565b82525050565b5f6020820190506111eb5f8301846111c9565b92915050565b6111fa816111c0565b8114611204575f80fd5b50565b5f81359050611215816111f1565b92915050565b5f602082840312156112305761122f611156565b5b5f61123d84828501611207565b91505092915050565b61124f8161115a565b82525050565b5f6020820190506112685f830184611246565b92915050565b5f806040838503121561128457611283611156565b5b5f61129185828601611207565b92505060206112a285828601611207565b9150509250929050565b5f82825260208201905092915050565b7f546f6b656e20696e76616c69646f2e00000000000000000000000000000000005f82015250565b5f6112f0600f836112ac565b91506112fb826112bc565b602082019050919050565b5f6020820190508181035f83015261131d816112e4565b9050919050565b5f81519050611332816111f1565b92915050565b5f6020828403121561134d5761134c611156565b5b5f61135a84828501611324565b91505092915050565b7f4e487b71000000000000000000000000000000000000000000000000000000005f52601160045260245ffd5b5f61139a826111c0565b91506113a5836111c0565b92508282026113b3816111c0565b915082820484148315176113ca576113c9611363565b5b5092915050565b7f4e487b71000000000000000000000000000000000000000000000000000000005f52601260045260245ffd5b5f611408826111c0565b9150611413836111c0565b925082611423576114226113d1565b5b828204905092915050565b5f611438826111c0565b9150611443836111c0565b925082820390508181111561145b5761145a611363565b5b92915050565b5f6060820190506114745f830186611246565b6114816020830185611246565b61148e60408301846111c9565b949350505050565b5f8115159050919050565b6114aa81611496565b81146114b4575f80fd5b50565b5f815190506114c5816114a1565b92915050565b5f602082840312156114e0576114df611156565b5b5f6114ed848285016114b7565b91505092915050565b5f6040820190506115095f830185611246565b61151660208301846111c9565b9392505050565b5f6060820190506115305f830186611246565b61153d60208301856111c9565b61154a60408301846111c9565b949350505050565b7f536f6c6f20656c206f776e657220707565646520656a656375746172206573745f8201527f612066756e63696f6e2e00000000000000000000000000000000000000000000602082015250565b5f6115ac602a836112ac565b91506115b782611552565b604082019050919050565b5f6020820190508181035f8301526115d9816115a0565b9050919050565b5f6040820190506115f35f8301856111c9565b61160060208301846111c9565b9392505050565b5f611611826111c0565b915061161c836111c0565b925082820190508082111561163457611633611363565b5b9291505056fea26469706673582212209f44587ca50241e23224116c92df9f560e0d4e29b5145d588a5a607af51e871d64736f6c634300081a0033",
			"opcodes": "PUSH1 0x80 PUSH1 0x40 MSTORE CALLVALUE DUP1 ISZERO PUSH2 0xF JUMPI PUSH0 DUP1 REVERT JUMPDEST POP PUSH1 0x40 MLOAD PUSH2 0x1810 CODESIZE SUB DUP1 PUSH2 0x1810 DUP4 CODECOPY DUP2 DUP2 ADD PUSH1 0x40 MSTORE DUP2 ADD SWAP1 PUSH2 0x31 SWAP2 SWAP1 PUSH2 0x155 JUMP JUMPDEST DUP2 PUSH0 DUP1 PUSH2 0x100 EXP DUP2 SLOAD DUP2 PUSH20 0xFFFFFFFFFFFFFFFFFFFFFFFFFFFFFFFFFFFFFFFF MUL NOT AND SWAP1 DUP4 PUSH20 0xFFFFFFFFFFFFFFFFFFFFFFFFFFFFFFFFFFFFFFFF AND MUL OR SWAP1 SSTORE POP DUP1 PUSH1 0x1 PUSH0 PUSH2 0x100 EXP DUP2 SLOAD DUP2 PUSH20 0xFFFFFFFFFFFFFFFFFFFFFFFFFFFFFFFFFFFFFFFF MUL NOT AND SWAP1 DUP4 PUSH20 0xFFFFFFFFFFFFFFFFFFFFFFFFFFFFFFFFFFFFFFFF AND MUL OR SWAP1 SSTORE POP CALLER PUSH1 0x2 PUSH0 PUSH2 0x100 EXP DUP2 SLOAD DUP2 PUSH20 0xFFFFFFFFFFFFFFFFFFFFFFFFFFFFFFFFFFFFFFFF MUL NOT AND SWAP1 DUP4 PUSH20 0xFFFFFFFFFFFFFFFFFFFFFFFFFFFFFFFFFFFFFFFF AND MUL OR SWAP1 SSTORE POP POP POP PUSH2 0x193 JUMP JUMPDEST PUSH0 DUP1 REVERT JUMPDEST PUSH0 PUSH20 0xFFFFFFFFFFFFFFFFFFFFFFFFFFFFFFFFFFFFFFFF DUP3 AND SWAP1 POP SWAP2 SWAP1 POP JUMP JUMPDEST PUSH0 PUSH2 0x124 DUP3 PUSH2 0xFB JUMP JUMPDEST SWAP1 POP SWAP2 SWAP1 POP JUMP JUMPDEST PUSH2 0x134 DUP2 PUSH2 0x11A JUMP JUMPDEST DUP2 EQ PUSH2 0x13E JUMPI PUSH0 DUP1 REVERT JUMPDEST POP JUMP JUMPDEST PUSH0 DUP2 MLOAD SWAP1 POP PUSH2 0x14F DUP2 PUSH2 0x12B JUMP JUMPDEST SWAP3 SWAP2 POP POP JUMP JUMPDEST PUSH0 DUP1 PUSH1 0x40 DUP4 DUP6 SUB SLT ISZERO PUSH2 0x16B JUMPI PUSH2 0x16A PUSH2 0xF7 JUMP JUMPDEST JUMPDEST PUSH0 PUSH2 0x178 DUP6 DUP3 DUP7 ADD PUSH2 0x141 JUMP JUMPDEST SWAP3 POP POP PUSH1 0x20 PUSH2 0x189 DUP6 DUP3 DUP7 ADD PUSH2 0x141 JUMP JUMPDEST SWAP2 POP POP SWAP3 POP SWAP3 SWAP1 POP JUMP JUMPDEST PUSH2 0x1670 DUP1 PUSH2 0x1A0 PUSH0 CODECOPY PUSH0 RETURN INVALID PUSH1 0x80 PUSH1 0x40 MSTORE PUSH1 0x4 CALLDATASIZE LT PUSH2 0x7A JUMPI PUSH0 CALLDATALOAD PUSH1 0xE0 SHR DUP1 PUSH4 0x8DA5CB5B GT PUSH2 0x4D JUMPI DUP1 PUSH4 0x8DA5CB5B EQ PUSH2 0x12A JUMPI DUP1 PUSH4 0x9CD441DA EQ PUSH2 0x154 JUMPI DUP1 PUSH4 0x9D7DE6B3 EQ PUSH2 0x170 JUMPI DUP1 PUSH4 0xE4F1F70A EQ PUSH2 0x18C JUMPI PUSH2 0x7A JUMP JUMPDEST DUP1 PUSH4 0xFC63D10 EQ PUSH2 0x7E JUMPI DUP1 PUSH4 0x41976E09 EQ PUSH2 0xA8 JUMPI DUP1 PUSH4 0x5F64B55B EQ PUSH2 0xE4 JUMPI DUP1 PUSH4 0x8014A7AA EQ PUSH2 0x10E JUMPI JUMPDEST PUSH0 DUP1 REVERT JUMPDEST CALLVALUE DUP1 ISZERO PUSH2 0x89 JUMPI PUSH0 DUP1 REVERT JUMPDEST POP PUSH2 0x92 PUSH2 0x1A8 JUMP JUMPDEST PUSH1 0x40 MLOAD PUSH2 0x9F SWAP2 SWAP1 PUSH2 0x113D JUMP JUMPDEST PUSH1 0x40 MLOAD DUP1 SWAP2 SUB SWAP1 RETURN JUMPDEST CALLVALUE DUP1 ISZERO PUSH2 0xB3 JUMPI PUSH0 DUP1 REVERT JUMPDEST POP PUSH2 0xCE PUSH1 0x4 DUP1 CALLDATASIZE SUB DUP2 ADD SWAP1 PUSH2 0xC9 SWAP2 SWAP1 PUSH2 0x1195 JUMP JUMPDEST PUSH2 0x1CB JUMP JUMPDEST PUSH1 0x40 MLOAD PUSH2 0xDB SWAP2 SWAP1 PUSH2 0x11D8 JUMP JUMPDEST PUSH1 0x40 MLOAD DUP1 SWAP2 SUB SWAP1 RETURN JUMPDEST CALLVALUE DUP1 ISZERO PUSH2 0xEF JUMPI PUSH0 DUP1 REVERT JUMPDEST POP PUSH2 0xF8 PUSH2 0x625 JUMP JUMPDEST PUSH1 0x40 MLOAD PUSH2 0x105 SWAP2 SWAP1 PUSH2 0x113D JUMP JUMPDEST PUSH1 0x40 MLOAD DUP1 SWAP2 SUB SWAP1 RETURN JUMPDEST PUSH2 0x128 PUSH1 0x4 DUP1 CALLDATASIZE SUB DUP2 ADD SWAP1 PUSH2 0x123 SWAP2 SWAP1 PUSH2 0x121B JUMP JUMPDEST PUSH2 0x64A JUMP JUMPDEST STOP JUMPDEST CALLVALUE DUP1 ISZERO PUSH2 0x135 JUMPI PUSH0 DUP1 REVERT JUMPDEST POP PUSH2 0x13E PUSH2 0x92C JUMP JUMPDEST PUSH1 0x40 MLOAD PUSH2 0x14B SWAP2 SWAP1 PUSH2 0x1255 JUMP JUMPDEST PUSH1 0x40 MLOAD DUP1 SWAP2 SUB SWAP1 RETURN JUMPDEST PUSH2 0x16E PUSH1 0x4 DUP1 CALLDATASIZE SUB DUP2 ADD SWAP1 PUSH2 0x169 SWAP2 SWAP1 PUSH2 0x126E JUMP JUMPDEST PUSH2 0x951 JUMP JUMPDEST STOP JUMPDEST PUSH2 0x18A PUSH1 0x4 DUP1 CALLDATASIZE SUB DUP2 ADD SWAP1 PUSH2 0x185 SWAP2 SWAP1 PUSH2 0x126E JUMP JUMPDEST PUSH2 0xB9B JUMP JUMPDEST STOP JUMPDEST PUSH2 0x1A6 PUSH1 0x4 DUP1 CALLDATASIZE SUB DUP2 ADD SWAP1 PUSH2 0x1A1 SWAP2 SWAP1 PUSH2 0x121B JUMP JUMPDEST PUSH2 0xDE1 JUMP JUMPDEST STOP JUMPDEST PUSH0 DUP1 SLOAD SWAP1 PUSH2 0x100 EXP SWAP1 DIV PUSH20 0xFFFFFFFFFFFFFFFFFFFFFFFFFFFFFFFFFFFFFFFF AND DUP2 JUMP JUMPDEST PUSH0 DUP1 PUSH0 SWAP1 SLOAD SWAP1 PUSH2 0x100 EXP SWAP1 DIV PUSH20 0xFFFFFFFFFFFFFFFFFFFFFFFFFFFFFFFFFFFFFFFF AND PUSH20 0xFFFFFFFFFFFFFFFFFFFFFFFFFFFFFFFFFFFFFFFF AND DUP3 PUSH20 0xFFFFFFFFFFFFFFFFFFFFFFFFFFFFFFFFFFFFFFFF AND EQ DUP1 PUSH2 0x272 JUMPI POP PUSH1 0x1 PUSH0 SWAP1 SLOAD SWAP1 PUSH2 0x100 EXP SWAP1 DIV PUSH20 0xFFFFFFFFFFFFFFFFFFFFFFFFFFFFFFFFFFFFFFFF AND PUSH20 0xFFFFFFFFFFFFFFFFFFFFFFFFFFFFFFFFFFFFFFFF AND DUP3 PUSH20 0xFFFFFFFFFFFFFFFFFFFFFFFFFFFFFFFFFFFFFFFF AND EQ JUMPDEST PUSH2 0x2B1 JUMPI PUSH1 0x40 MLOAD PUSH32 0x8C379A000000000000000000000000000000000000000000000000000000000 DUP2 MSTORE PUSH1 0x4 ADD PUSH2 0x2A8 SWAP1 PUSH2 0x1306 JUMP JUMPDEST PUSH1 0x40 MLOAD DUP1 SWAP2 SUB SWAP1 REVERT JUMPDEST PUSH0 DUP1 SLOAD SWAP1 PUSH2 0x100 EXP SWAP1 DIV PUSH20 0xFFFFFFFFFFFFFFFFFFFFFFFFFFFFFFFFFFFFFFFF AND PUSH20 0xFFFFFFFFFFFFFFFFFFFFFFFFFFFFFFFFFFFFFFFF AND DUP3 PUSH20 0xFFFFFFFFFFFFFFFFFFFFFFFFFFFFFFFFFFFFFFFF AND SUB PUSH2 0x467 JUMPI PUSH1 0x64 DUP1 PUSH0 DUP1 SLOAD SWAP1 PUSH2 0x100 EXP SWAP1 DIV PUSH20 0xFFFFFFFFFFFFFFFFFFFFFFFFFFFFFFFFFFFFFFFF AND PUSH20 0xFFFFFFFFFFFFFFFFFFFFFFFFFFFFFFFFFFFFFFFF AND PUSH4 0x70A08231 ADDRESS PUSH1 0x40 MLOAD DUP3 PUSH4 0xFFFFFFFF AND PUSH1 0xE0 SHL DUP2 MSTORE PUSH1 0x4 ADD PUSH2 0x35E SWAP2 SWAP1 PUSH2 0x1255 JUMP JUMPDEST PUSH1 0x20 PUSH1 0x40 MLOAD DUP1 DUP4 SUB DUP2 DUP7 GAS STATICCALL ISZERO DUP1 ISZERO PUSH2 0x379 JUMPI RETURNDATASIZE PUSH0 DUP1 RETURNDATACOPY RETURNDATASIZE PUSH0 REVERT JUMPDEST POP POP POP POP PUSH1 0x40 MLOAD RETURNDATASIZE PUSH1 0x1F NOT PUSH1 0x1F DUP3 ADD AND DUP3 ADD DUP1 PUSH1 0x40 MSTORE POP DUP2 ADD SWAP1 PUSH2 0x39D SWAP2 SWAP1 PUSH2 0x1338 JUMP JUMPDEST PUSH1 0x64 PUSH1 0x1 PUSH0 SWAP1 SLOAD SWAP1 PUSH2 0x100 EXP SWAP1 DIV PUSH20 0xFFFFFFFFFFFFFFFFFFFFFFFFFFFFFFFFFFFFFFFF AND PUSH20 0xFFFFFFFFFFFFFFFFFFFFFFFFFFFFFFFFFFFFFFFF AND PUSH4 0x70A08231 ADDRESS PUSH1 0x40 MLOAD DUP3 PUSH4 0xFFFFFFFF AND PUSH1 0xE0 SHL DUP2 MSTORE PUSH1 0x4 ADD PUSH2 0x3F9 SWAP2 SWAP1 PUSH2 0x1255 JUMP JUMPDEST PUSH1 0x20 PUSH1 0x40 MLOAD DUP1 DUP4 SUB DUP2 DUP7 GAS STATICCALL ISZERO DUP1 ISZERO PUSH2 0x414 JUMPI RETURNDATASIZE PUSH0 DUP1 RETURNDATACOPY RETURNDATASIZE PUSH0 REVERT JUMPDEST POP POP POP POP PUSH1 0x40 MLOAD RETURNDATASIZE PUSH1 0x1F NOT PUSH1 0x1F DUP3 ADD AND DUP3 ADD DUP1 PUSH1 0x40 MSTORE POP DUP2 ADD SWAP1 PUSH2 0x438 SWAP2 SWAP1 PUSH2 0x1338 JUMP JUMPDEST PUSH2 0x442 SWAP2 SWAP1 PUSH2 0x1390 JUMP JUMPDEST PUSH2 0x44C SWAP2 SWAP1 PUSH2 0x13FE JUMP JUMPDEST PUSH2 0x456 SWAP2 SWAP1 PUSH2 0x1390 JUMP JUMPDEST PUSH2 0x460 SWAP2 SWAP1 PUSH2 0x13FE JUMP JUMPDEST SWAP1 POP PUSH2 0x620 JUMP JUMPDEST PUSH1 0x1 PUSH0 SWAP1 SLOAD SWAP1 PUSH2 0x100 EXP SWAP1 DIV PUSH20 0xFFFFFFFFFFFFFFFFFFFFFFFFFFFFFFFFFFFFFFFF AND PUSH20 0xFFFFFFFFFFFFFFFFFFFFFFFFFFFFFFFFFFFFFFFF AND DUP3 PUSH20 0xFFFFFFFFFFFFFFFFFFFFFFFFFFFFFFFFFFFFFFFF AND SUB PUSH2 0x61F JUMPI PUSH1 0x64 DUP1 PUSH1 0x1 PUSH0 SWAP1 SLOAD SWAP1 PUSH2 0x100 EXP SWAP1 DIV PUSH20 0xFFFFFFFFFFFFFFFFFFFFFFFFFFFFFFFFFFFFFFFF AND PUSH20 0xFFFFFFFFFFFFFFFFFFFFFFFFFFFFFFFFFFFFFFFF AND PUSH4 0x70A08231 ADDRESS PUSH1 0x40 MLOAD DUP3 PUSH4 0xFFFFFFFF AND PUSH1 0xE0 SHL DUP2 MSTORE PUSH1 0x4 ADD PUSH2 0x518 SWAP2 SWAP1 PUSH2 0x1255 JUMP JUMPDEST PUSH1 0x20 PUSH1 0x40 MLOAD DUP1 DUP4 SUB DUP2 DUP7 GAS STATICCALL ISZERO DUP1 ISZERO PUSH2 0x533 JUMPI RETURNDATASIZE PUSH0 DUP1 RETURNDATACOPY RETURNDATASIZE PUSH0 REVERT JUMPDEST POP POP POP POP PUSH1 0x40 MLOAD RETURNDATASIZE PUSH1 0x1F NOT PUSH1 0x1F DUP3 ADD AND DUP3 ADD DUP1 PUSH1 0x40 MSTORE POP DUP2 ADD SWAP1 PUSH2 0x557 SWAP2 SWAP1 PUSH2 0x1338 JUMP JUMPDEST PUSH1 0x64 PUSH0 DUP1 SLOAD SWAP1 PUSH2 0x100 EXP SWAP1 DIV PUSH20 0xFFFFFFFFFFFFFFFFFFFFFFFFFFFFFFFFFFFFFFFF AND PUSH20 0xFFFFFFFFFFFFFFFFFFFFFFFFFFFFFFFFFFFFFFFF AND PUSH4 0x70A08231 ADDRESS PUSH1 0x40 MLOAD DUP3 PUSH4 0xFFFFFFFF AND PUSH1 0xE0 SHL DUP2 MSTORE PUSH1 0x4 ADD PUSH2 0x5B1 SWAP2 SWAP1 PUSH2 0x1255 JUMP JUMPDEST PUSH1 0x20 PUSH1 0x40 MLOAD DUP1 DUP4 SUB DUP2 DUP7 GAS STATICCALL ISZERO DUP1 ISZERO PUSH2 0x5CC JUMPI RETURNDATASIZE PUSH0 DUP1 RETURNDATACOPY RETURNDATASIZE PUSH0 REVERT JUMPDEST POP POP POP POP PUSH1 0x40 MLOAD RETURNDATASIZE PUSH1 0x1F NOT PUSH1 0x1F DUP3 ADD AND DUP3 ADD DUP1 PUSH1 0x40 MSTORE POP DUP2 ADD SWAP1 PUSH2 0x5F0 SWAP2 SWAP1 PUSH2 0x1338 JUMP JUMPDEST PUSH2 0x5FA SWAP2 SWAP1 PUSH2 0x1390 JUMP JUMPDEST PUSH2 0x604 SWAP2 SWAP1 PUSH2 0x13FE JUMP JUMPDEST PUSH2 0x60E SWAP2 SWAP1 PUSH2 0x1390 JUMP JUMPDEST PUSH2 0x618 SWAP2 SWAP1 PUSH2 0x13FE JUMP JUMPDEST SWAP1 POP PUSH2 0x620 JUMP JUMPDEST JUMPDEST SWAP2 SWAP1 POP JUMP JUMPDEST PUSH1 0x1 PUSH0 SWAP1 SLOAD SWAP1 PUSH2 0x100 EXP SWAP1 DIV PUSH20 0xFFFFFFFFFFFFFFFFFFFFFFFFFFFFFFFFFFFFFFFF AND DUP2 JUMP JUMPDEST PUSH0 DUP1 PUSH0 SWAP1 SLOAD SWAP1 PUSH2 0x100 EXP SWAP1 DIV PUSH20 0xFFFFFFFFFFFFFFFFFFFFFFFFFFFFFFFFFFFFFFFF AND PUSH20 0xFFFFFFFFFFFFFFFFFFFFFFFFFFFFFFFFFFFFFFFF AND PUSH4 0x70A08231 ADDRESS PUSH1 0x40 MLOAD DUP3 PUSH4 0xFFFFFFFF AND PUSH1 0xE0 SHL DUP2 MSTORE PUSH1 0x4 ADD PUSH2 0x6A4 SWAP2 SWAP1 PUSH2 0x1255 JUMP JUMPDEST PUSH1 0x20 PUSH1 0x40 MLOAD DUP1 DUP4 SUB DUP2 DUP7 GAS STATICCALL ISZERO DUP1 ISZERO PUSH2 0x6BF JUMPI RETURNDATASIZE PUSH0 DUP1 RETURNDATACOPY RETURNDATASIZE PUSH0 REVERT JUMPDEST POP POP POP POP PUSH1 0x40 MLOAD RETURNDATASIZE PUSH1 0x1F NOT PUSH1 0x1F DUP3 ADD AND DUP3 ADD DUP1 PUSH1 0x40 MSTORE POP DUP2 ADD SWAP1 PUSH2 0x6E3 SWAP2 SWAP1 PUSH2 0x1338 JUMP JUMPDEST SWAP1 POP PUSH0 PUSH1 0x1 PUSH0 SWAP1 SLOAD SWAP1 PUSH2 0x100 EXP SWAP1 DIV PUSH20 0xFFFFFFFFFFFFFFFFFFFFFFFFFFFFFFFFFFFFFFFF AND PUSH20 0xFFFFFFFFFFFFFFFFFFFFFFFFFFFFFFFFFFFFFFFF AND PUSH4 0x70A08231 ADDRESS PUSH1 0x40 MLOAD DUP3 PUSH4 0xFFFFFFFF AND PUSH1 0xE0 SHL DUP2 MSTORE PUSH1 0x4 ADD PUSH2 0x740 SWAP2 SWAP1 PUSH2 0x1255 JUMP JUMPDEST PUSH1 0x20 PUSH1 0x40 MLOAD DUP1 DUP4 SUB DUP2 DUP7 GAS STATICCALL ISZERO DUP1 ISZERO PUSH2 0x75B JUMPI RETURNDATASIZE PUSH0 DUP1 RETURNDATACOPY RETURNDATASIZE PUSH0 REVERT JUMPDEST POP POP POP POP PUSH1 0x40 MLOAD RETURNDATASIZE PUSH1 0x1F NOT PUSH1 0x1F DUP3 ADD AND DUP3 ADD DUP1 PUSH1 0x40 MSTORE POP DUP2 ADD SWAP1 PUSH2 0x77F SWAP2 SWAP1 PUSH2 0x1338 JUMP JUMPDEST SWAP1 POP PUSH0 DUP3 DUP5 DUP4 PUSH2 0x78F SWAP2 SWAP1 PUSH2 0x142E JUMP JUMPDEST DUP4 DUP6 PUSH2 0x79B SWAP2 SWAP1 PUSH2 0x1390 JUMP JUMPDEST PUSH2 0x7A5 SWAP2 SWAP1 PUSH2 0x13FE JUMP JUMPDEST PUSH2 0x7AF SWAP2 SWAP1 PUSH2 0x142E JUMP JUMPDEST SWAP1 POP PUSH1 0x1 PUSH0 SWAP1 SLOAD SWAP1 PUSH2 0x100 EXP SWAP1 DIV PUSH20 0xFFFFFFFFFFFFFFFFFFFFFFFFFFFFFFFFFFFFFFFF AND PUSH20 0xFFFFFFFFFFFFFFFFFFFFFFFFFFFFFFFFFFFFFFFF AND PUSH4 0x23B872DD CALLER ADDRESS DUP8 PUSH1 0x40 MLOAD DUP5 PUSH4 0xFFFFFFFF AND PUSH1 0xE0 SHL DUP2 MSTORE PUSH1 0x4 ADD PUSH2 0x80F SWAP4 SWAP3 SWAP2 SWAP1 PUSH2 0x1461 JUMP JUMPDEST PUSH1 0x20 PUSH1 0x40 MLOAD DUP1 DUP4 SUB DUP2 PUSH0 DUP8 GAS CALL ISZERO DUP1 ISZERO PUSH2 0x82B JUMPI RETURNDATASIZE PUSH0 DUP1 RETURNDATACOPY RETURNDATASIZE PUSH0 REVERT JUMPDEST POP POP POP POP PUSH1 0x40 MLOAD RETURNDATASIZE PUSH1 0x1F NOT PUSH1 0x1F DUP3 ADD AND DUP3 ADD DUP1 PUSH1 0x40 MSTORE POP DUP2 ADD SWAP1 PUSH2 0x84F SWAP2 SWAP1 PUSH2 0x14CB JUMP JUMPDEST POP PUSH0 DUP1 SLOAD SWAP1 PUSH2 0x100 EXP SWAP1 DIV PUSH20 0xFFFFFFFFFFFFFFFFFFFFFFFFFFFFFFFFFFFFFFFF AND PUSH20 0xFFFFFFFFFFFFFFFFFFFFFFFFFFFFFFFFFFFFFFFF AND PUSH4 0xA9059CBB CALLER DUP4 PUSH1 0x40 MLOAD DUP4 PUSH4 0xFFFFFFFF AND PUSH1 0xE0 SHL DUP2 MSTORE PUSH1 0x4 ADD PUSH2 0x8AA SWAP3 SWAP2 SWAP1 PUSH2 0x14F6 JUMP JUMPDEST PUSH1 0x20 PUSH1 0x40 MLOAD DUP1 DUP4 SUB DUP2 PUSH0 DUP8 GAS CALL ISZERO DUP1 ISZERO PUSH2 0x8C6 JUMPI RETURNDATASIZE PUSH0 DUP1 RETURNDATACOPY RETURNDATASIZE PUSH0 REVERT JUMPDEST POP POP POP POP PUSH1 0x40 MLOAD RETURNDATASIZE PUSH1 0x1F NOT PUSH1 0x1F DUP3 ADD AND DUP3 ADD DUP1 PUSH1 0x40 MSTORE POP DUP2 ADD SWAP1 PUSH2 0x8EA SWAP2 SWAP1 PUSH2 0x14CB JUMP JUMPDEST POP PUSH32 0x18704AE982DCD24A1BEEEED3ECF045AB0520D7B7519B97ADF3E4F40BF7EFE339 CALLER DUP3 DUP7 PUSH1 0x40 MLOAD PUSH2 0x91E SWAP4 SWAP3 SWAP2 SWAP1 PUSH2 0x151D JUMP JUMPDEST PUSH1 0x40 MLOAD DUP1 SWAP2 SUB SWAP1 LOG1 POP POP POP POP JUMP JUMPDEST PUSH1 0x2 PUSH0 SWAP1 SLOAD SWAP1 PUSH2 0x100 EXP SWAP1 DIV PUSH20 0xFFFFFFFFFFFFFFFFFFFFFFFFFFFFFFFFFFFFFFFF AND DUP2 JUMP JUMPDEST PUSH1 0x2 PUSH0 SWAP1 SLOAD SWAP1 PUSH2 0x100 EXP SWAP1 DIV PUSH20 0xFFFFFFFFFFFFFFFFFFFFFFFFFFFFFFFFFFFFFFFF AND PUSH20 0xFFFFFFFFFFFFFFFFFFFFFFFFFFFFFFFFFFFFFFFF AND CALLER PUSH20 0xFFFFFFFFFFFFFFFFFFFFFFFFFFFFFFFFFFFFFFFF AND EQ PUSH2 0x9E0 JUMPI PUSH1 0x40 MLOAD PUSH32 0x8C379A000000000000000000000000000000000000000000000000000000000 DUP2 MSTORE PUSH1 0x4 ADD PUSH2 0x9D7 SWAP1 PUSH2 0x15C2 JUMP JUMPDEST PUSH1 0x40 MLOAD DUP1 SWAP2 SUB SWAP1 REVERT JUMPDEST PUSH0 DUP1 SLOAD SWAP1 PUSH2 0x100 EXP SWAP1 DIV PUSH20 0xFFFFFFFFFFFFFFFFFFFFFFFFFFFFFFFFFFFFFFFF AND PUSH20 0xFFFFFFFFFFFFFFFFFFFFFFFFFFFFFFFFFFFFFFFF AND PUSH4 0x23B872DD PUSH1 0x2 PUSH0 SWAP1 SLOAD SWAP1 PUSH2 0x100 EXP SWAP1 DIV PUSH20 0xFFFFFFFFFFFFFFFFFFFFFFFFFFFFFFFFFFFFFFFF AND ADDRESS DUP6 PUSH1 0x40 MLOAD DUP5 PUSH4 0xFFFFFFFF AND PUSH1 0xE0 SHL DUP2 MSTORE PUSH1 0x4 ADD PUSH2 0xA5D SWAP4 SWAP3 SWAP2 SWAP1 PUSH2 0x1461 JUMP JUMPDEST PUSH1 0x20 PUSH1 0x40 MLOAD DUP1 DUP4 SUB DUP2 PUSH0 DUP8 GAS CALL ISZERO DUP1 ISZERO PUSH2 0xA79 JUMPI RETURNDATASIZE PUSH0 DUP1 RETURNDATACOPY RETURNDATASIZE PUSH0 REVERT JUMPDEST POP POP POP POP PUSH1 0x40 MLOAD RETURNDATASIZE PUSH1 0x1F NOT PUSH1 0x1F DUP3 ADD AND DUP3 ADD DUP1 PUSH1 0x40 MSTORE POP DUP2 ADD SWAP1 PUSH2 0xA9D SWAP2 SWAP1 PUSH2 0x14CB JUMP JUMPDEST POP PUSH1 0x1 PUSH0 SWAP1 SLOAD SWAP1 PUSH2 0x100 EXP SWAP1 DIV PUSH20 0xFFFFFFFFFFFFFFFFFFFFFFFFFFFFFFFFFFFFFFFF AND PUSH20 0xFFFFFFFFFFFFFFFFFFFFFFFFFFFFFFFFFFFFFFFF AND PUSH4 0x23B872DD PUSH1 0x2 PUSH0 SWAP1 SLOAD SWAP1 PUSH2 0x100 EXP SWAP1 DIV PUSH20 0xFFFFFFFFFFFFFFFFFFFFFFFFFFFFFFFFFFFFFFFF AND ADDRESS DUP5 PUSH1 0x40 MLOAD DUP5 PUSH4 0xFFFFFFFF AND PUSH1 0xE0 SHL DUP2 MSTORE PUSH1 0x4 ADD PUSH2 0xB1D SWAP4 SWAP3 SWAP2 SWAP1 PUSH2 0x1461 JUMP JUMPDEST PUSH1 0x20 PUSH1 0x40 MLOAD DUP1 DUP4 SUB DUP2 PUSH0 DUP8 GAS CALL ISZERO DUP1 ISZERO PUSH2 0xB39 JUMPI RETURNDATASIZE PUSH0 DUP1 RETURNDATACOPY RETURNDATASIZE PUSH0 REVERT JUMPDEST POP POP POP POP PUSH1 0x40 MLOAD RETURNDATASIZE PUSH1 0x1F NOT PUSH1 0x1F DUP3 ADD AND DUP3 ADD DUP1 PUSH1 0x40 MSTORE POP DUP2 ADD SWAP1 PUSH2 0xB5D SWAP2 SWAP1 PUSH2 0x14CB JUMP JUMPDEST POP PUSH32 0x38F8A0C92F4C5B0B6877F878CB4C0C8D348A47B76D716C8E78F425043DF9515B DUP3 DUP3 PUSH1 0x40 MLOAD PUSH2 0xB8F SWAP3 SWAP2 SWAP1 PUSH2 0x15E0 JUMP JUMPDEST PUSH1 0x40 MLOAD DUP1 SWAP2 SUB SWAP1 LOG1 POP POP JUMP JUMPDEST PUSH1 0x2 PUSH0 SWAP1 SLOAD SWAP1 PUSH2 0x100 EXP SWAP1 DIV PUSH20 0xFFFFFFFFFFFFFFFFFFFFFFFFFFFFFFFFFFFFFFFF AND PUSH20 0xFFFFFFFFFFFFFFFFFFFFFFFFFFFFFFFFFFFFFFFF AND CALLER PUSH20 0xFFFFFFFFFFFFFFFFFFFFFFFFFFFFFFFFFFFFFFFF AND EQ PUSH2 0xC2A JUMPI PUSH1 0x40 MLOAD PUSH32 0x8C379A000000000000000000000000000000000000000000000000000000000 DUP2 MSTORE PUSH1 0x4 ADD PUSH2 0xC21 SWAP1 PUSH2 0x15C2 JUMP JUMPDEST PUSH1 0x40 MLOAD DUP1 SWAP2 SUB SWAP1 REVERT JUMPDEST PUSH0 DUP1 SLOAD SWAP1 PUSH2 0x100 EXP SWAP1 DIV PUSH20 0xFFFFFFFFFFFFFFFFFFFFFFFFFFFFFFFFFFFFFFFF AND PUSH20 0xFFFFFFFFFFFFFFFFFFFFFFFFFFFFFFFFFFFFFFFF AND PUSH4 0xA9059CBB PUSH1 0x2 PUSH0 SWAP1 SLOAD SWAP1 PUSH2 0x100 EXP SWAP1 DIV PUSH20 0xFFFFFFFFFFFFFFFFFFFFFFFFFFFFFFFFFFFFFFFF AND DUP5 PUSH1 0x40 MLOAD DUP4 PUSH4 0xFFFFFFFF AND PUSH1 0xE0 SHL DUP2 MSTORE PUSH1 0x4 ADD PUSH2 0xCA5 SWAP3 SWAP2 SWAP1 PUSH2 0x14F6 JUMP JUMPDEST PUSH1 0x20 PUSH1 0x40 MLOAD DUP1 DUP4 SUB DUP2 PUSH0 DUP8 GAS CALL ISZERO DUP1 ISZERO PUSH2 0xCC1 JUMPI RETURNDATASIZE PUSH0 DUP1 RETURNDATACOPY RETURNDATASIZE PUSH0 REVERT JUMPDEST POP POP POP POP PUSH1 0x40 MLOAD RETURNDATASIZE PUSH1 0x1F NOT PUSH1 0x1F DUP3 ADD AND DUP3 ADD DUP1 PUSH1 0x40 MSTORE POP DUP2 ADD SWAP1 PUSH2 0xCE5 SWAP2 SWAP1 PUSH2 0x14CB JUMP JUMPDEST POP PUSH1 0x1 PUSH0 SWAP1 SLOAD SWAP1 PUSH2 0x100 EXP SWAP1 DIV PUSH20 0xFFFFFFFFFFFFFFFFFFFFFFFFFFFFFFFFFFFFFFFF AND PUSH20 0xFFFFFFFFFFFFFFFFFFFFFFFFFFFFFFFFFFFFFFFF AND PUSH4 0xA9059CBB PUSH1 0x2 PUSH0 SWAP1 SLOAD SWAP1 PUSH2 0x100 EXP SWAP1 DIV PUSH20 0xFFFFFFFFFFFFFFFFFFFFFFFFFFFFFFFFFFFFFFFF AND DUP4 PUSH1 0x40 MLOAD DUP4 PUSH4 0xFFFFFFFF AND PUSH1 0xE0 SHL DUP2 MSTORE PUSH1 0x4 ADD PUSH2 0xD63 SWAP3 SWAP2 SWAP1 PUSH2 0x14F6 JUMP JUMPDEST PUSH1 0x20 PUSH1 0x40 MLOAD DUP1 DUP4 SUB DUP2 PUSH0 DUP8 GAS CALL ISZERO DUP1 ISZERO PUSH2 0xD7F JUMPI RETURNDATASIZE PUSH0 DUP1 RETURNDATACOPY RETURNDATASIZE PUSH0 REVERT JUMPDEST POP POP POP POP PUSH1 0x40 MLOAD RETURNDATASIZE PUSH1 0x1F NOT PUSH1 0x1F DUP3 ADD AND DUP3 ADD DUP1 PUSH1 0x40 MSTORE POP DUP2 ADD SWAP1 PUSH2 0xDA3 SWAP2 SWAP1 PUSH2 0x14CB JUMP JUMPDEST POP PUSH32 0x6F0F96292AE0038C04F9B6BAB30F185D9CA02C471D0983F563F2A4F674AEF137 DUP3 DUP3 PUSH1 0x40 MLOAD PUSH2 0xDD5 SWAP3 SWAP2 SWAP1 PUSH2 0x15E0 JUMP JUMPDEST PUSH1 0x40 MLOAD DUP1 SWAP2 SUB SWAP1 LOG1 POP POP JUMP JUMPDEST PUSH0 DUP1 PUSH0 SWAP1 SLOAD SWAP1 PUSH2 0x100 EXP SWAP1 DIV PUSH20 0xFFFFFFFFFFFFFFFFFFFFFFFFFFFFFFFFFFFFFFFF AND PUSH20 0xFFFFFFFFFFFFFFFFFFFFFFFFFFFFFFFFFFFFFFFF AND PUSH4 0x70A08231 ADDRESS PUSH1 0x40 MLOAD DUP3 PUSH4 0xFFFFFFFF AND PUSH1 0xE0 SHL DUP2 MSTORE PUSH1 0x4 ADD PUSH2 0xE3B SWAP2 SWAP1 PUSH2 0x1255 JUMP JUMPDEST PUSH1 0x20 PUSH1 0x40 MLOAD DUP1 DUP4 SUB DUP2 DUP7 GAS STATICCALL ISZERO DUP1 ISZERO PUSH2 0xE56 JUMPI RETURNDATASIZE PUSH0 DUP1 RETURNDATACOPY RETURNDATASIZE PUSH0 REVERT JUMPDEST POP POP POP POP PUSH1 0x40 MLOAD RETURNDATASIZE PUSH1 0x1F NOT PUSH1 0x1F DUP3 ADD AND DUP3 ADD DUP1 PUSH1 0x40 MSTORE POP DUP2 ADD SWAP1 PUSH2 0xE7A SWAP2 SWAP1 PUSH2 0x1338 JUMP JUMPDEST SWAP1 POP PUSH0 PUSH1 0x1 PUSH0 SWAP1 SLOAD SWAP1 PUSH2 0x100 EXP SWAP1 DIV PUSH20 0xFFFFFFFFFFFFFFFFFFFFFFFFFFFFFFFFFFFFFFFF AND PUSH20 0xFFFFFFFFFFFFFFFFFFFFFFFFFFFFFFFFFFFFFFFF AND PUSH4 0x70A08231 ADDRESS PUSH1 0x40 MLOAD DUP3 PUSH4 0xFFFFFFFF AND PUSH1 0xE0 SHL DUP2 MSTORE PUSH1 0x4 ADD PUSH2 0xED7 SWAP2 SWAP1 PUSH2 0x1255 JUMP JUMPDEST PUSH1 0x20 PUSH1 0x40 MLOAD DUP1 DUP4 SUB DUP2 DUP7 GAS STATICCALL ISZERO DUP1 ISZERO PUSH2 0xEF2 JUMPI RETURNDATASIZE PUSH0 DUP1 RETURNDATACOPY RETURNDATASIZE PUSH0 REVERT JUMPDEST POP POP POP POP PUSH1 0x40 MLOAD RETURNDATASIZE PUSH1 0x1F NOT PUSH1 0x1F DUP3 ADD AND DUP3 ADD DUP1 PUSH1 0x40 MSTORE POP DUP2 ADD SWAP1 PUSH2 0xF16 SWAP2 SWAP1 PUSH2 0x1338 JUMP JUMPDEST SWAP1 POP PUSH0 DUP4 DUP4 PUSH2 0xF25 SWAP2 SWAP1 PUSH2 0x1607 JUMP JUMPDEST DUP3 DUP5 PUSH2 0xF31 SWAP2 SWAP1 PUSH2 0x1390 JUMP JUMPDEST PUSH2 0xF3B SWAP2 SWAP1 PUSH2 0x13FE JUMP JUMPDEST DUP3 PUSH2 0xF46 SWAP2 SWAP1 PUSH2 0x142E JUMP JUMPDEST SWAP1 POP PUSH0 DUP1 SLOAD SWAP1 PUSH2 0x100 EXP SWAP1 DIV PUSH20 0xFFFFFFFFFFFFFFFFFFFFFFFFFFFFFFFFFFFFFFFF AND PUSH20 0xFFFFFFFFFFFFFFFFFFFFFFFFFFFFFFFFFFFFFFFF AND PUSH4 0x23B872DD CALLER ADDRESS DUP8 PUSH1 0x40 MLOAD DUP5 PUSH4 0xFFFFFFFF AND PUSH1 0xE0 SHL DUP2 MSTORE PUSH1 0x4 ADD PUSH2 0xFA4 SWAP4 SWAP3 SWAP2 SWAP1 PUSH2 0x1461 JUMP JUMPDEST PUSH1 0x20 PUSH1 0x40 MLOAD DUP1 DUP4 SUB DUP2 PUSH0 DUP8 GAS CALL ISZERO DUP1 ISZERO PUSH2 0xFC0 JUMPI RETURNDATASIZE PUSH0 DUP1 RETURNDATACOPY RETURNDATASIZE PUSH0 REVERT JUMPDEST POP POP POP POP PUSH1 0x40 MLOAD RETURNDATASIZE PUSH1 0x1F NOT PUSH1 0x1F DUP3 ADD AND DUP3 ADD DUP1 PUSH1 0x40 MSTORE POP DUP2 ADD SWAP1 PUSH2 0xFE4 SWAP2 SWAP1 PUSH2 0x14CB JUMP JUMPDEST POP PUSH1 0x1 PUSH0 SWAP1 SLOAD SWAP1 PUSH2 0x100 EXP SWAP1 DIV PUSH20 0xFFFFFFFFFFFFFFFFFFFFFFFFFFFFFFFFFFFFFFFF AND PUSH20 0xFFFFFFFFFFFFFFFFFFFFFFFFFFFFFFFFFFFFFFFF AND PUSH4 0xA9059CBB CALLER DUP4 PUSH1 0x40 MLOAD DUP4 PUSH4 0xFFFFFFFF AND PUSH1 0xE0 SHL DUP2 MSTORE PUSH1 0x4 ADD PUSH2 0x1041 SWAP3 SWAP2 SWAP1 PUSH2 0x14F6 JUMP JUMPDEST PUSH1 0x20 PUSH1 0x40 MLOAD DUP1 DUP4 SUB DUP2 PUSH0 DUP8 GAS CALL ISZERO DUP1 ISZERO PUSH2 0x105D JUMPI RETURNDATASIZE PUSH0 DUP1 RETURNDATACOPY RETURNDATASIZE PUSH0 REVERT JUMPDEST POP POP POP POP PUSH1 0x40 MLOAD RETURNDATASIZE PUSH1 0x1F NOT PUSH1 0x1F DUP3 ADD AND DUP3 ADD DUP1 PUSH1 0x40 MSTORE POP DUP2 ADD SWAP1 PUSH2 0x1081 SWAP2 SWAP1 PUSH2 0x14CB JUMP JUMPDEST POP PUSH32 0x18704AE982DCD24A1BEEEED3ECF045AB0520D7B7519B97ADF3E4F40BF7EFE339 CALLER DUP6 DUP4 PUSH1 0x40 MLOAD PUSH2 0x10B5 SWAP4 SWAP3 SWAP2 SWAP1 PUSH2 0x151D JUMP JUMPDEST PUSH1 0x40 MLOAD DUP1 SWAP2 SUB SWAP1 LOG1 POP POP POP POP JUMP JUMPDEST PUSH0 PUSH20 0xFFFFFFFFFFFFFFFFFFFFFFFFFFFFFFFFFFFFFFFF DUP3 AND SWAP1 POP SWAP2 SWAP1 POP JUMP JUMPDEST PUSH0 DUP2 SWAP1 POP SWAP2 SWAP1 POP JUMP JUMPDEST PUSH0 PUSH2 0x1105 PUSH2 0x1100 PUSH2 0x10FB DUP5 PUSH2 0x10C3 JUMP JUMPDEST PUSH2 0x10E2 JUMP JUMPDEST PUSH2 0x10C3 JUMP JUMPDEST SWAP1 POP SWAP2 SWAP1 POP JUMP JUMPDEST PUSH0 PUSH2 0x1116 DUP3 PUSH2 0x10EB JUMP JUMPDEST SWAP1 POP SWAP2 SWAP1 POP JUMP JUMPDEST PUSH0 PUSH2 0x1127 DUP3 PUSH2 0x110C JUMP JUMPDEST SWAP1 POP SWAP2 SWAP1 POP JUMP JUMPDEST PUSH2 0x1137 DUP2 PUSH2 0x111D JUMP JUMPDEST DUP3 MSTORE POP POP JUMP JUMPDEST PUSH0 PUSH1 0x20 DUP3 ADD SWAP1 POP PUSH2 0x1150 PUSH0 DUP4 ADD DUP5 PUSH2 0x112E JUMP JUMPDEST SWAP3 SWAP2 POP POP JUMP JUMPDEST PUSH0 DUP1 REVERT JUMPDEST PUSH0 PUSH2 0x1164 DUP3 PUSH2 0x10C3 JUMP JUMPDEST SWAP1 POP SWAP2 SWAP1 POP JUMP JUMPDEST PUSH2 0x1174 DUP2 PUSH2 0x115A JUMP JUMPDEST DUP2 EQ PUSH2 0x117E JUMPI PUSH0 DUP1 REVERT JUMPDEST POP JUMP JUMPDEST PUSH0 DUP2 CALLDATALOAD SWAP1 POP PUSH2 0x118F DUP2 PUSH2 0x116B JUMP JUMPDEST SWAP3 SWAP2 POP POP JUMP JUMPDEST PUSH0 PUSH1 0x20 DUP3 DUP5 SUB SLT ISZERO PUSH2 0x11AA JUMPI PUSH2 0x11A9 PUSH2 0x1156 JUMP JUMPDEST JUMPDEST PUSH0 PUSH2 0x11B7 DUP5 DUP3 DUP6 ADD PUSH2 0x1181 JUMP JUMPDEST SWAP2 POP POP SWAP3 SWAP2 POP POP JUMP JUMPDEST PUSH0 DUP2 SWAP1 POP SWAP2 SWAP1 POP JUMP JUMPDEST PUSH2 0x11D2 DUP2 PUSH2 0x11C0 JUMP JUMPDEST DUP3 MSTORE POP POP JUMP JUMPDEST PUSH0 PUSH1 0x20 DUP3 ADD SWAP1 POP PUSH2 0x11EB PUSH0 DUP4 ADD DUP5 PUSH2 0x11C9 JUMP JUMPDEST SWAP3 SWAP2 POP POP JUMP JUMPDEST PUSH2 0x11FA DUP2 PUSH2 0x11C0 JUMP JUMPDEST DUP2 EQ PUSH2 0x1204 JUMPI PUSH0 DUP1 REVERT JUMPDEST POP JUMP JUMPDEST PUSH0 DUP2 CALLDATALOAD SWAP1 POP PUSH2 0x1215 DUP2 PUSH2 0x11F1 JUMP JUMPDEST SWAP3 SWAP2 POP POP JUMP JUMPDEST PUSH0 PUSH1 0x20 DUP3 DUP5 SUB SLT ISZERO PUSH2 0x1230 JUMPI PUSH2 0x122F PUSH2 0x1156 JUMP JUMPDEST JUMPDEST PUSH0 PUSH2 0x123D DUP5 DUP3 DUP6 ADD PUSH2 0x1207 JUMP JUMPDEST SWAP2 POP POP SWAP3 SWAP2 POP POP JUMP JUMPDEST PUSH2 0x124F DUP2 PUSH2 0x115A JUMP JUMPDEST DUP3 MSTORE POP POP JUMP JUMPDEST PUSH0 PUSH1 0x20 DUP3 ADD SWAP1 POP PUSH2 0x1268 PUSH0 DUP4 ADD DUP5 PUSH2 0x1246 JUMP JUMPDEST SWAP3 SWAP2 POP POP JUMP JUMPDEST PUSH0 DUP1 PUSH1 0x40 DUP4 DUP6 SUB SLT ISZERO PUSH2 0x1284 JUMPI PUSH2 0x1283 PUSH2 0x1156 JUMP JUMPDEST JUMPDEST PUSH0 PUSH2 0x1291 DUP6 DUP3 DUP7 ADD PUSH2 0x1207 JUMP JUMPDEST SWAP3 POP POP PUSH1 0x20 PUSH2 0x12A2 DUP6 DUP3 DUP7 ADD PUSH2 0x1207 JUMP JUMPDEST SWAP2 POP POP SWAP3 POP SWAP3 SWAP1 POP JUMP JUMPDEST PUSH0 DUP3 DUP3 MSTORE PUSH1 0x20 DUP3 ADD SWAP1 POP SWAP3 SWAP2 POP POP JUMP JUMPDEST PUSH32 0x546F6B656E20696E76616C69646F2E0000000000000000000000000000000000 PUSH0 DUP3 ADD MSTORE POP JUMP JUMPDEST PUSH0 PUSH2 0x12F0 PUSH1 0xF DUP4 PUSH2 0x12AC JUMP JUMPDEST SWAP2 POP PUSH2 0x12FB DUP3 PUSH2 0x12BC JUMP JUMPDEST PUSH1 0x20 DUP3 ADD SWAP1 POP SWAP2 SWAP1 POP JUMP JUMPDEST PUSH0 PUSH1 0x20 DUP3 ADD SWAP1 POP DUP2 DUP2 SUB PUSH0 DUP4 ADD MSTORE PUSH2 0x131D DUP2 PUSH2 0x12E4 JUMP JUMPDEST SWAP1 POP SWAP2 SWAP1 POP JUMP JUMPDEST PUSH0 DUP2 MLOAD SWAP1 POP PUSH2 0x1332 DUP2 PUSH2 0x11F1 JUMP JUMPDEST SWAP3 SWAP2 POP POP JUMP JUMPDEST PUSH0 PUSH1 0x20 DUP3 DUP5 SUB SLT ISZERO PUSH2 0x134D JUMPI PUSH2 0x134C PUSH2 0x1156 JUMP JUMPDEST JUMPDEST PUSH0 PUSH2 0x135A DUP5 DUP3 DUP6 ADD PUSH2 0x1324 JUMP JUMPDEST SWAP2 POP POP SWAP3 SWAP2 POP POP JUMP JUMPDEST PUSH32 0x4E487B7100000000000000000000000000000000000000000000000000000000 PUSH0 MSTORE PUSH1 0x11 PUSH1 0x4 MSTORE PUSH1 0x24 PUSH0 REVERT JUMPDEST PUSH0 PUSH2 0x139A DUP3 PUSH2 0x11C0 JUMP JUMPDEST SWAP2 POP PUSH2 0x13A5 DUP4 PUSH2 0x11C0 JUMP JUMPDEST SWAP3 POP DUP3 DUP3 MUL PUSH2 0x13B3 DUP2 PUSH2 0x11C0 JUMP JUMPDEST SWAP2 POP DUP3 DUP3 DIV DUP5 EQ DUP4 ISZERO OR PUSH2 0x13CA JUMPI PUSH2 0x13C9 PUSH2 0x1363 JUMP JUMPDEST JUMPDEST POP SWAP3 SWAP2 POP POP JUMP JUMPDEST PUSH32 0x4E487B7100000000000000000000000000000000000000000000000000000000 PUSH0 MSTORE PUSH1 0x12 PUSH1 0x4 MSTORE PUSH1 0x24 PUSH0 REVERT JUMPDEST PUSH0 PUSH2 0x1408 DUP3 PUSH2 0x11C0 JUMP JUMPDEST SWAP2 POP PUSH2 0x1413 DUP4 PUSH2 0x11C0 JUMP JUMPDEST SWAP3 POP DUP3 PUSH2 0x1423 JUMPI PUSH2 0x1422 PUSH2 0x13D1 JUMP JUMPDEST JUMPDEST DUP3 DUP3 DIV SWAP1 POP SWAP3 SWAP2 POP POP JUMP JUMPDEST PUSH0 PUSH2 0x1438 DUP3 PUSH2 0x11C0 JUMP JUMPDEST SWAP2 POP PUSH2 0x1443 DUP4 PUSH2 0x11C0 JUMP JUMPDEST SWAP3 POP DUP3 DUP3 SUB SWAP1 POP DUP2 DUP2 GT ISZERO PUSH2 0x145B JUMPI PUSH2 0x145A PUSH2 0x1363 JUMP JUMPDEST JUMPDEST SWAP3 SWAP2 POP POP JUMP JUMPDEST PUSH0 PUSH1 0x60 DUP3 ADD SWAP1 POP PUSH2 0x1474 PUSH0 DUP4 ADD DUP7 PUSH2 0x1246 JUMP JUMPDEST PUSH2 0x1481 PUSH1 0x20 DUP4 ADD DUP6 PUSH2 0x1246 JUMP JUMPDEST PUSH2 0x148E PUSH1 0x40 DUP4 ADD DUP5 PUSH2 0x11C9 JUMP JUMPDEST SWAP5 SWAP4 POP POP POP POP JUMP JUMPDEST PUSH0 DUP2 ISZERO ISZERO SWAP1 POP SWAP2 SWAP1 POP JUMP JUMPDEST PUSH2 0x14AA DUP2 PUSH2 0x1496 JUMP JUMPDEST DUP2 EQ PUSH2 0x14B4 JUMPI PUSH0 DUP1 REVERT JUMPDEST POP JUMP JUMPDEST PUSH0 DUP2 MLOAD SWAP1 POP PUSH2 0x14C5 DUP2 PUSH2 0x14A1 JUMP JUMPDEST SWAP3 SWAP2 POP POP JUMP JUMPDEST PUSH0 PUSH1 0x20 DUP3 DUP5 SUB SLT ISZERO PUSH2 0x14E0 JUMPI PUSH2 0x14DF PUSH2 0x1156 JUMP JUMPDEST JUMPDEST PUSH0 PUSH2 0x14ED DUP5 DUP3 DUP6 ADD PUSH2 0x14B7 JUMP JUMPDEST SWAP2 POP POP SWAP3 SWAP2 POP POP JUMP JUMPDEST PUSH0 PUSH1 0x40 DUP3 ADD SWAP1 POP PUSH2 0x1509 PUSH0 DUP4 ADD DUP6 PUSH2 0x1246 JUMP JUMPDEST PUSH2 0x1516 PUSH1 0x20 DUP4 ADD DUP5 PUSH2 0x11C9 JUMP JUMPDEST SWAP4 SWAP3 POP POP POP JUMP JUMPDEST PUSH0 PUSH1 0x60 DUP3 ADD SWAP1 POP PUSH2 0x1530 PUSH0 DUP4 ADD DUP7 PUSH2 0x1246 JUMP JUMPDEST PUSH2 0x153D PUSH1 0x20 DUP4 ADD DUP6 PUSH2 0x11C9 JUMP JUMPDEST PUSH2 0x154A PUSH1 0x40 DUP4 ADD DUP5 PUSH2 0x11C9 JUMP JUMPDEST SWAP5 SWAP4 POP POP POP POP JUMP JUMPDEST PUSH32 0x536F6C6F20656C206F776E657220707565646520656A65637574617220657374 PUSH0 DUP3 ADD MSTORE PUSH32 0x612066756E63696F6E2E00000000000000000000000000000000000000000000 PUSH1 0x20 DUP3 ADD MSTORE POP JUMP JUMPDEST PUSH0 PUSH2 0x15AC PUSH1 0x2A DUP4 PUSH2 0x12AC JUMP JUMPDEST SWAP2 POP PUSH2 0x15B7 DUP3 PUSH2 0x1552 JUMP JUMPDEST PUSH1 0x40 DUP3 ADD SWAP1 POP SWAP2 SWAP1 POP JUMP JUMPDEST PUSH0 PUSH1 0x20 DUP3 ADD SWAP1 POP DUP2 DUP2 SUB PUSH0 DUP4 ADD MSTORE PUSH2 0x15D9 DUP2 PUSH2 0x15A0 JUMP JUMPDEST SWAP1 POP SWAP2 SWAP1 POP JUMP JUMPDEST PUSH0 PUSH1 0x40 DUP3 ADD SWAP1 POP PUSH2 0x15F3 PUSH0 DUP4 ADD DUP6 PUSH2 0x11C9 JUMP JUMPDEST PUSH2 0x1600 PUSH1 0x20 DUP4 ADD DUP5 PUSH2 0x11C9 JUMP JUMPDEST SWAP4 SWAP3 POP POP POP JUMP JUMPDEST PUSH0 PUSH2 0x1611 DUP3 PUSH2 0x11C0 JUMP JUMPDEST SWAP2 POP PUSH2 0x161C DUP4 PUSH2 0x11C0 JUMP JUMPDEST SWAP3 POP DUP3 DUP3 ADD SWAP1 POP DUP1 DUP3 GT ISZERO PUSH2 0x1634 JUMPI PUSH2 0x1633 PUSH2 0x1363 JUMP JUMPDEST JUMPDEST SWAP3 SWAP2 POP POP JUMP INVALID LOG2 PUSH5 0x6970667358 0x22 SLT KECCAK256 SWAP16 PREVRANDAO PC PUSH29 0xA50241E23224116C92DF9F560E0D4E29B5145D588A5A607AF51E871D64 PUSH20 0x6F6C634300081A00330000000000000000000000 "
		},
		"gasEstimates": {
			"creation": {
				"codeDepositCost": "1148800",
				"executionCost": "infinite",
				"totalCost": "infinite"
			},
			"external": {
				"addLiquidity(uint256,uint256)": "infinite",
				"getPrice(address)": "infinite",
				"owner()": "2508",
				"removeLiquidity(uint256,uint256)": "infinite",
				"swapAforB(uint256)": "infinite",
				"swapBforA(uint256)": "infinite",
				"tokenA()": "infinite",
				"tokenB()": "infinite"
			}
		},
		"methodIdentifiers": {
			"addLiquidity(uint256,uint256)": "9cd441da",
			"getPrice(address)": "41976e09",
			"owner()": "8da5cb5b",
			"removeLiquidity(uint256,uint256)": "9d7de6b3",
			"swapAforB(uint256)": "e4f1f70a",
			"swapBforA(uint256)": "8014a7aa",
			"tokenA()": "0fc63d10",
			"tokenB()": "5f64b55b"
		}
	},
	"abi": [
		{
			"inputs": [
				{
					"internalType": "address",
					"name": "_tokenA",
					"type": "address"
				},
				{
					"internalType": "address",
					"name": "_tokenB",
					"type": "address"
				}
			],
			"stateMutability": "nonpayable",
			"type": "constructor"
		},
		{
			"anonymous": false,
			"inputs": [
				{
					"indexed": false,
					"internalType": "uint256",
					"name": "amountA",
					"type": "uint256"
				},
				{
					"indexed": false,
					"internalType": "uint256",
					"name": "amountB",
					"type": "uint256"
				}
			],
			"name": "LiquidityAdded",
			"type": "event"
		},
		{
			"anonymous": false,
			"inputs": [
				{
					"indexed": false,
					"internalType": "uint256",
					"name": "amountA",
					"type": "uint256"
				},
				{
					"indexed": false,
					"internalType": "uint256",
					"name": "amountB",
					"type": "uint256"
				}
			],
			"name": "LiquidityRemoved",
			"type": "event"
		},
		{
			"anonymous": false,
			"inputs": [
				{
					"indexed": false,
					"internalType": "address",
					"name": "trader",
					"type": "address"
				},
				{
					"indexed": false,
					"internalType": "uint256",
					"name": "amountA",
					"type": "uint256"
				},
				{
					"indexed": false,
					"internalType": "uint256",
					"name": "amountB",
					"type": "uint256"
				}
			],
			"name": "TokensSwapped",
			"type": "event"
		},
		{
			"inputs": [
				{
					"internalType": "uint256",
					"name": "amountA",
					"type": "uint256"
				},
				{
					"internalType": "uint256",
					"name": "amountB",
					"type": "uint256"
				}
			],
			"name": "addLiquidity",
			"outputs": [],
			"stateMutability": "payable",
			"type": "function"
		},
		{
			"inputs": [
				{
					"internalType": "address",
					"name": "_token",
					"type": "address"
				}
			],
			"name": "getPrice",
			"outputs": [
				{
					"internalType": "uint256",
					"name": "price",
					"type": "uint256"
				}
			],
			"stateMutability": "view",
			"type": "function"
		},
		{
			"inputs": [],
			"name": "owner",
			"outputs": [
				{
					"internalType": "address",
					"name": "",
					"type": "address"
				}
			],
			"stateMutability": "view",
			"type": "function"
		},
		{
			"inputs": [
				{
					"internalType": "uint256",
					"name": "amountA",
					"type": "uint256"
				},
				{
					"internalType": "uint256",
					"name": "amountB",
					"type": "uint256"
				}
			],
			"name": "removeLiquidity",
			"outputs": [],
			"stateMutability": "payable",
			"type": "function"
		},
		{
			"inputs": [
				{
					"internalType": "uint256",
					"name": "amountAIn",
					"type": "uint256"
				}
			],
			"name": "swapAforB",
			"outputs": [],
			"stateMutability": "payable",
			"type": "function"
		},
		{
			"inputs": [
				{
					"internalType": "uint256",
					"name": "amountBIn",
					"type": "uint256"
				}
			],
			"name": "swapBforA",
			"outputs": [],
			"stateMutability": "payable",
			"type": "function"
		},
		{
			"inputs": [],
			"name": "tokenA",
			"outputs": [
				{
					"internalType": "contract IERC20",
					"name": "",
					"type": "address"
				}
			],
			"stateMutability": "view",
			"type": "function"
		},
		{
			"inputs": [],
			"name": "tokenB",
			"outputs": [
				{
					"internalType": "contract IERC20",
					"name": "",
					"type": "address"
				}
			],
			"stateMutability": "view",
			"type": "function"
		}
	]
}